S00E00006175784F6E652E73726563A6
S113000018020120E1020000DD020000DD02000010
S1130010DD020000DD020000DD020000000000003F
S1130020000000000000000000000000DD020000ED
S1130030DD02000000000000DD020000DD0200001F
S1130040DD020000DD020000DD020000DD02000030
S1130050DD020000DD020000DD020000DD02000020
S1130060DD020000DD020000DD020000DD02000010
S1130070DD020000DD020000DD020000DD02000000
S1130080DD020000DD020000DD020000DD020000F0
S1130090DD020000DD020000DD020000DD020000E0
S11300A0DD020000DD020000DD020000DD020000D0
S11300B0DD020000DD020000DD020000DD020000C0
S11300C0DD020000DD020000DD020000DD020000B0
S11300D0DD020000DD020000DD020000DD020000A0
S11300E0DD020000DD02000000000000000000004E
S11300F000000000810A0000DD020000DD020000B3
S1130100DD020000DD020000DD020000DD0200006F
S1130110DD020000DD020000DD020000DD0200005F
S1130120DD020000DD020000DD020000DD0200004F
S1130130DD020000DD020000050E0000190E0000C3
S11301402D0E0000410E0000DD020000DD02000063
S1130150DD020000DD0200000000000000000000DD
S1130160000000000000000000000000000000008B
S11301700000000000000000DD020000DD020000BD
S1130180DD020000DD020000DD020000DD020000EF
S113019000000000DD020000DD020000DD020000BE
S11301A0DD020000DD020000DD020000DD020000CF
S11301B0DD020000DD020000DD020000DD020000BF
S11301C0DD020000DD020000DD020000DD020000AF
S11301D0DD020000DD020000DD020000DD0200009F
S11301E0DD020000DD020000DD020000DD0200008F
S11301F0DD020000DD020000DD020000DD0200007F
S1130200DD0200000000000000000000DD0200002C
S1130210DD020000DD020000DD020000DD0200005E
S1130220DD020000DD020000DD020000DD0200004E
S1130230DD020000DD020000DD020000DD0200003E
S1130240DD020000DD020000DD020000DD0200002E
S1130250DD020000DD020000DD020000DD0200001E
S11302600000000010B5054C237833B9044B13B1DA
S11302700448AFF300800123237010BD6400002004
S113028000000000901300000C4B43B10C480D49D2
S113029010B5AFF300800C48036823B910BD0A48B9
S11302A0036833B97047094B002BF7D0BDE8104001
S11302B01847064B002BF5D0184700BF000000007C
S11302C0901300006800002090130000000000005C
S11302D008B5014B984708BD01040000FEE7000083
S11302E008B5154B154A9A4209D0134B134A03E03B
S11302F0116819600433043211498B42F8D3114B4D
S113030002E000221A6004330F4A9342F9D30F4BE0
S11303100F4A22F07F029A60D3F8882042F47002D8
S1130320C3F88820BFF34F8FBFF36F8F094B9847F3
S1130330094B9847FEE700BF00000020901300001F
S113034064000020640000201402002000ED00E09E
S11303500000000039100000550F0000064B402239
S1130360C3F808214322C3F88C20044A136A43F0DB
S113037001031362704700BF001C004000080040E6
S1130380104B93F8CC2002F0FE0242F0010283F8F5
S1130390CC2093F8B62002F0F00242F0020283F877
S11303A0B62093F8CD2002F0FE0242F0010283F859
S11303B0CD2093F8B62002F00F0242F0200283F819
S11303C0B62070470080004110B582B0074B9847B3
S11303D0002300931023064A4FF086410548064C3B
S11303E0A047064B984702B010BD00BF5D03000054
S11303F080000020AC0000206D0600008103000096
S113040008B50B4B98470B4B4FF480429A619A60A6
S11304104FF040229A624FF040429A6293F84E2085
S113042002F0FE0283F84E20034B984708BD00BF3C
S1130430E908000000800041C9030000F8B5054642
S11304400E4617460F4B98470446B0B130460E4B44
S113045098472618394628460A4B9847044660B1FF
S1130460851B002D0BDD681C084B984704462A4663
S11304703146074B9847002363552046F8BD0024B6
S1130480FBE700BFCD1100009911000081100000AE
S113049091100000EFF31083036072B6BFF35F8F17
S11304A07047BFF35F8F036883F3108870470000C1
S11304B070B50D461646044668B151B10120342288
S11304C00649074B984723683246294620469847F1
S11304D070BD0020F3E70020F1E700BF0812000020
S11304E0CD07000070B50D461646044668B151B1FB
S11304F001203D220649074B984763683246294646
S11305002046984770BD0020F3E70020F1E700BFC4
S113051008120000CD07000008B500238362C369F8
S11305201BB1A0F108021046984708BD08B5002386
S11305308362436A1BB1A0F108021046984708BDC4
S113054038B50446A0F108052C30034B9847236ABC
S11305500BB12846984738BD6108000070B50E46B7
S113056015460446D8B1E1B1EAB9002040F23B1285
S11305700F49104B9847B4F84420B4F84C309A42D1
S113058013D1A664A4F84C500023A4F844300123EA
S1130590236304F10800084B9847284670BD0020E7
S11305A0E4E70020E2E70120E0E76FF01B0070BD04
S11305B01C120000CD070000830D000010B5044696
S11305C0838FB0F84420934209D0026C591C818770
S11305D0D15C044B98472046034B984710BD034B0E
S11305E0984710BD7D0D0000830D00008B0D0000A9
S11305F02DE9F04182B0884616460546A0B1A9B15E
S1130600B2B900204FF4AC721249134B984701A8B9
S1130610124B984734352846114B9847074601A892
S1130620104B984700240BE00020EBE70020E9E79B
S11306300120E7E70134A4B2414428460A4B984715
S11306402146A74201D9B442F4D3204602B0BDE802
S1130650F08100BF1C120000CD07000095040000CB
S1130660A1080000A304000019080000F8B50D4615
S113067016461F46044618B321B32AB333BB0020E1
S11306803A221549154B98473A46314604F134004D
S1130690134B9847E0B9294604F10800114B9847D9
S11306A0034658B9104A6260104A2260104AA26098
S11306B0104AE260104A2261104A62611846F8BD8D
S11306C00020DDE70020DBE70020D9E70120D7E7A1
S11306D06FF00C03F2E700BF1C120000CD0700000E
S11306E0D5070000E50C0000F10500005D050000E1
S11306F0BD05000041050000190500002D0500009E
S113070010B5044661220649003018BF0120054B8C
S1130710984704F10800044B9847002010BD00BF1F
S11307201C120000CD070000690D000038B50C460E
S1130730054650B139B1012077220549054B984748
S11307402560002038BD0020F6E70020F4E700BF54
S11307501C120000CD07000070B50C461646054675
S113076083221749003018BF0120164B9847012CEB
S113077010D024B1022C18D06FF00C0070BDAE6202
S1130780321C18BF0122012105F108000E4B9847C5
S1130790002070BD6E62321C18BF0122022105F1D7
S11307A00800094B9847002070BDEE62321C18BF48
S11307B00122032105F10800034B9847002070BD76
S11307C01C120000CD070000950D000000B900BE0A
S11307D07047000070B50E461546044678B181B1E5
S11307E08AB9002028220A490A4B98476B1E1D42E9
S11307F00BD163600020A060E060266070BD002023
S1130800F0E70020EEE70120ECE76FF00C0070BD8C
S11308103C120000CD07000038B50D460446A8B1CF
S113082091B1012040220C490C4B9847E268A3681F
S11308309A420DD0226861680B40D35C2B70A36888
S11308400133A360002038BD0020EBE70020E9E776
S11308506FF0090038BD00BF3C120000CD07000056
S113086038B50D46044651220B49003018BF01200B
S11308700A4B98472268E36861680B40D554E368E3
S1130880A2689A1A61688A4201D9591AA16001338F
S1130890E360002038BD00BF3C120000CD0700001B
S11308A010B5044667220549003018BF0120044BE7
S11308B09847E068A368C01A10BD00BF3C1200004E
S11308C0CD0700000346064A126822B1044A1068A4
S11308D00344136070470349014A1160F6E700BFFF
S11308E0900000201802012010B5094A13889BB219
S11308F01380084B9847084B9847084B98470820A3
S1130900074CA047074B984740F6F770A04710BD27
S113091000400041750900009509000069090000C4
S1130920290900009909000010F0010F08D00B4AB2
S11309300B4B1A620A4B5A6843F6FD731A42F9D1FB
S113094010F0080F08D0074A054BDA62044B5A68C6
S113095043F6FD731A42F9D1704700BF0601010046
S1130960001C0040050101000122014B5A7170472F
S113097000080040064B42F286029A8200229A75D1
S1130980DA75DA6902F47C52DA6101221A7470476A
S11309900014004070470000364A136A23F00F0326
S11309A043F004031362334B5A6843F6FD731A424F
S11309B0F9D1304B5B6813F0040FFAD12E4B0022AF
S11309C01A772E4A9A622C4B93F82C3013F0100F9E
S11309D0F9D10022284B83F82020274B93F82C30A0
S11309E013F0040FF9D10222234B1A77224B93F808
S11309F02C3013F0020FF9D11F4B5A6A5A621E4B66
S1130A0093F82C3013F0080FF9D180221A4B83F895
S1130A102020194B93F82C3013F0040FF9D1164B06
S1130A2093F8203013F0010F1DD0134B1B6903F40E
S1130A301063B3F5106FF8D10E4B5B68002BFBD13C
S1130A400C4A136A23F00F0343F006031362094BA5
S1130A505A6843F6FD731A42F9D1064B5B6813F0EA
S1130A60040FFAD17047044B1B6913F4807FFAD04A
S1130A70E2E700BF001C0040001000400000010439
S1130A8000B583B00D4B9B78DBB20193019B13F04F
S1130A90020F06D00A4B1B681BB1084A50689847DE
S1130AA009E0019B13F0010F05D0054B5B6813B1FE
S1130AB0024A5068984703B05DF804FB0000024105
S1130AC0FC00002070B487B006466C460C4D0FCD78
S1130AD00FC495E8030084E80300002005280AD821
S1130AE006AB03EB800353F8183CB34201D001304A
S1130AF0F4E7C0B200E0002007B070BC704700BF4C
S1130B006012000010B58469237E13F0010F03D036
S1130B10A37D13F0010F12D1237E13F0020F03D033
S1130B20A37D13F0020F0FD1237E13F0040F15D011
S1130B30638B03F0370363B1FF23638310BD012389
S1130B4023750368984710BD02232375836898476B
S1130B5010BD4368A16AC9B2984710BD237EDB0962
S1130B6000D110BD80232376C3689847638B9BB262
S1130B706383F6E7B0F1864F00D07047014B1960EC
S1130B80FBE700BF9400002008B5044B98478000A1
S1130B90C0B22E3000F0FE0008BD00BFC50A000040
S1130BA008B50C4B9847002343B140F26B220A4925
S1130BB000200A4B98470023184608BD03EB430264
S1130BC0D100074A0A44127E9042F5D00133DBB2C9
S1130BD0EAE700BFC50A0000CC120000CD07000000
S1130BE06012000038B504463C4B9847E36913F0A3
S1130BF0010F22D100EB4003DA00394B1344DA69C8
S1130C0002F01C02E36913F0030FFBD1236813F015
S1130C10020F0BD0236823F002032360E36913F06F
S1130C20030FFBD1E36913F0020FFBD142F0010281
S1130C302260E36913F0030FFBD1E36913F0010FA2
S1130C40FBD100EB4003DA00254B1344DB6923603E
S1130C50E36913F0030FFBD100EB4003DA00204BF0
S1130C6013441B6A6360E36913F01F0FFBD1420056
S1130C700244D1001A4B0B445A6AA260DB6913F494
S1130C80005F0AD113F4C04F07D100EB4003DA0030
S1130C90134B13441B8DA3810FE042000244D10087
S1130CA00F4B0B44198DA28961F30C02A28193F8B6
S1130CB02A20A38962F34F33A381094A43001D18F4
S1130CC0E9000D46114491F82B10A1732A4492F8BF
S1130CD02C3084F83030002038BD00BFA10B000058
S1130CE06012000070B50C460646CB22184900304D
S1130CF018BF0120174B98472046174B98470546C5
S1130D0008B1284670BDB46131462046134B98475C
S1130D102046134B9847002416E0410900F01F02B7
S1130D20012393400F4A01F1200642F82630BFF315
S1130D304F8FBFF36F8F01F1600642F8263042F8FF
S1130D4021300130C0B20134032CE6D9D9E700BF09
S1130D50CC120000CD070000E50B0000750B00006D
S1130D60890B000000E100E08269136843F002038C
S1130D701360D36913F0030FFBD170478369996241
S1130D807047836901229A757047836902229A75B4
S1130D907047000070B50C461546064640F22B22FB
S1130DA01649003018BF0120154B984734B1022C66
S1130DB004D0012C11D0032C17D070BDB36935B900
S1130DC001221A75B3692DB902221A7570BD012268
S1130DD09A75F7E702229A7570BDB36915B90422B2
S1130DE01A7570BD04229A7570BDB36915B180225D
S1130DF09A75E2E780221A7570BD00BFCC1200001C
S1130E00CD07000008B5024B1868024B984708BD8F
S1130E1094000020050B000008B5024B1868024B33
S1130E20984708BD94000020050B000008B5024B4C
S1130E301868024B984708BD94000020050B000079
S1130E4008B5024B1868024B984708BD940000206F
S1130E50050B00000022014B1A7070479800002017
S1130E6010B582B0012201A92E4B18682E4B984769
S1130E70C0B2D0B12D4B5B687F2B21DC9DF80410F0
S1130E802B4AD1540133294A53600EE0591E284A93
S1130E90D05C505401337F2BF8DD9DF80420244BA3
S1130EA083F87F208022214B5A60204B5B68032B00
S1130EB004DD5A1E1E498A5C0A2A03D002B010BD02
S1130EC00123E8E7023BCB5C0D2BF7D10222174B41
S1130ED01A72092217491648174B984718B101226C
S1130EE0124B5A72EAE7154A12491148144B9847B3
S1130EF004461449144B984730B94FF48042134BBD
S1130F005A610122094B1A72114920460E4B984727
S1130F100028E4D14FF480420C4B9A610122034B28
S1130F201A72DCE70C010020E504000098000020A0
S1130F3090010020E8120000A9110000F412000042
S1130F403D040000F81200008511000000800041FB
S1130F50FC12000038B52A4B98472A4C2A4A002133
S1130F6020462A4DA8472A4A01212046A847294954
S1130F702046294B98472046284B984711E00021EA
S1130F80274AD1540133274A52689342F7DB254B51
S1130F9000225A605A7208E00023F4E7214B1B78C0
S1130FA0EBB1204B5B7A002BF6D11E4B1B7A012B45
S1130FB0F4D0022BF5D11B4B1B78002BF1D1194A2D
S1130FC01372194C194B03CB206061600123137019
S1130FD0072221460F4B1868154B9847E1E7114B40
S1130FE000221A721049134A1068086092888A8095
S1130FF001221A700522074B18680D4B9847D0E759
S1131000D1020000AC000020610E0000590700006E
S1131010550E00000C0100202D0700000107000000
S11310209001002098000020100100200813000007
S1131030B10400000013000070B50D4E0D4CA41B4C
S1131040A4100025A54209D10B4E0C4C00F090F9D8
S1131050A41BA4100025A54205D170BD56F8253067
S113106098470135EEE756F8253098470135F2E701
S11310707C1300007C1300007C130000801300002C
S1131080024B0146186800F00FB800BF00000020B2
S113109010B5431E0A44914200D110BD11F8014B12
S11310A003F8014FF7E7000070B5CD1C25F00305E8
S11310B008350C2D38BF0C25002D064601DBA9424E
S11310C003D90C233360002070BD00F09AF8234A42
S11310D01468214691B9224C23681BB9304600F0AC
S11310E041F820602946304600F03CF8431C26D1E4
S11310F00C233360304600F085F8E4E70B685B1B93
S11311001AD40B2B0FD90B60CD50CC18304600F0FD
S113111079F804F10B00231D20F00700C31A1BD03B
S11311205A42E25070BD8C420DBF63684B686360E5
S1131130136018BF0C46E9E70C464968CAE7C41CAB
S113114024F00304A04205D0211A304600F00AF826
S11311500130CDD02560D9E770BD00BFA4000020C8
S1131160A800002038B5064C002305460846236035
S1131170FFF7A8FB431C02D1236803B12B6038BDE1
S11311801002002010F8012B11F8013B012A28BF9E
S11311909A42F7D0D01A7047034613F8012B002A5D
S11311A0FBD1181A0138704710B56AB10139841897
S11311B010F8013B11F8012F934203D1A04201D052
S11311C0002BF5D1981A10BD104610BDF0B5037868
S11311D033B1034618465E1C1B7833B91846F0BD7C
S11311E00B78002B18BF0020F0BD4D1E441E15F8CF
S11311F0012F002AF3D014F8017F97423346F6D02A
S1131200E8E77047704700002E2E2F68616C2F733B
S113121072632F68616C5F696F2E63002E2E2F68D6
S1131220616C2F7372632F68616C5F757361727484
S11312305F6173796E632E63000000002E2E2F68A9
S1131240616C2F7574696C732F7372632F75746975
S11312506C735F72696E676275666665722E630091
S113126000300040003400400020014100400141B2
S11312700000004300040043040000000400104088
S113128040000300020070002BF600000000000084
S1131290000000000000000000000000000000004A
S11312A0000000000000000000000000000000003A
S11312B0000000000000000000000000000000002A
S11312C00000000000000000000000002E2E2F6827
S11312D0706C2F736572636F6D2F68706C5F7365CC
S11312E072636F6D2E6300006C65643061757831D4
S11312F03D0000000D0A00006F6E00006F6666007E
S113130041434B0D0A0000004E4F41434B0D0A0070
S113131000000000000000000000000000000000C9
S113132000000000000000000000000000000000B9
S113133000000000000000000000000000000000A9
S11313400000000000000000000000000000000099
S11313500000000000000000000000000000000089
S11313600000000000000000000000000000000079
S1131370F8B500BFF8BC08BC9E467047890200005F
S1131380F8B500BFF8BC08BC9E4670476502000073
S1131390040000200000000030130000501300007F
S11313A01013000000000000000000000000000016
S11313B00000000000000000000000000000000029
S11313C00000000000000000000000000000000019
S11313D00000000000000000000000000000000009
S11313E000000000000000000000000000000000F9
S10713F000000000F5
S9030000FC
