S00E000061757854776F2E737265638E
S113000018020120E1020000DD020000DD02000010
S1130010DD020000DD020000DD020000000000003F
S1130020000000000000000000000000DD020000ED
S1130030DD02000000000000DD020000DD0200001F
S1130040DD020000DD020000DD020000DD02000030
S1130050DD020000DD020000DD020000DD02000020
S1130060DD020000DD020000DD020000DD02000010
S1130070DD020000DD020000DD020000DD02000000
S1130080DD020000DD020000DD020000DD020000F0
S1130090DD020000DD020000DD020000DD020000E0
S11300A0DD020000DD020000DD020000DD020000D0
S11300B0DD020000DD020000DD020000DD020000C0
S11300C0DD020000DD020000DD020000DD020000B0
S11300D0DD020000DD020000DD020000DD020000A0
S11300E0DD020000DD02000000000000000000004E
S11300F000000000B10A0000DD020000DD02000083
S1130100DD020000DD020000DD020000DD0200006F
S1130110DD020000DD020000DD020000DD0200005F
S1130120DD020000DD020000DD020000DD0200004F
S1130130DD020000DD020000350E0000490E000063
S11301405D0E0000710E0000DD020000DD02000003
S1130150DD020000DD0200000000000000000000DD
S1130160000000000000000000000000000000008B
S11301700000000000000000DD020000DD020000BD
S1130180DD020000DD020000DD020000DD020000EF
S113019000000000DD020000DD020000DD020000BE
S11301A0DD020000DD020000DD020000DD020000CF
S11301B0DD020000DD020000DD020000DD020000BF
S11301C0DD020000DD020000DD020000DD020000AF
S11301D0DD020000DD020000DD020000DD0200009F
S11301E0DD020000DD020000DD020000DD0200008F
S11301F0DD020000DD020000DD020000DD0200007F
S1130200DD0200000000000000000000DD0200002C
S1130210DD020000DD020000DD020000DD0200005E
S1130220DD020000DD020000DD020000DD0200004E
S1130230DD020000DD020000DD020000DD0200003E
S1130240DD020000DD020000DD020000DD0200002E
S1130250DD020000DD020000DD020000DD0200001E
S11302600000000010B5054C237833B9044B13B1DA
S11302700448AFF300800123237010BD6400002004
S113028000000000E41300000C4B43B10C480D497E
S113029010B5AFF300800C48036823B910BD0A48B9
S11302A0036833B97047094B002BF7D0BDE8104001
S11302B01847064B002BF5D0184700BF000000007C
S11302C0E413000068000020E413000000000000B4
S11302D008B5014B984708BD15040000FEE700006F
S11302E008B5154B154A9A4209D0134B134A03E03B
S11302F0116819600433043211498B42F8D3114B4D
S113030002E000221A6004330F4A9342F9D30F4BE0
S11303100F4A22F07F029A60D3F8882042F47002D8
S1130320C3F88820BFF34F8FBFF36F8F094B9847F3
S1130330094B9847FEE700BF00000020E4130000CB
S113034064000020640000201802002000ED00E09A
S1130350000000008D100000A50F0000064B402295
S1130360C3F808214322C3F88C20044A136A43F0DB
S113037001031362704700BF001C004000080040E6
S1130380104B93F8CC2002F0FE0242F0010283F8F5
S1130390CC2093F8B62002F0F00242F0020283F877
S11303A0B62093F8CD2002F0FE0242F0010283F859
S11303B0CD2093F8B62002F00F0242F0200283F819
S11303C0B62070470080004110B582B0074B9847B3
S11303D0002300931023064A4FF086410548064C3B
S11303E0A047064B984702B010BD00BF5D03000054
S11303F080000020B00000209D0600008103000062
S113040008B50248024B984708BD00BF10E000E061
S1130410CD04000008B50C4B98470C4B4FF48042B8
S11304209A619A604FF040229A624FF040429A6279
S113043093F84E2002F0FE0283F84E20044B9847B6
S1130440044B984708BD00BF190900000080004113
S1130450C903000001040000F8B505460E4617461E
S11304600F4B98470446B0B130460E4B98472618B8
S1130470394628460A4B9847044660B1851B002D2F
S11304800BDD681C084B984704462A463146074B47
S11304909847002363552046F8BD0024FBE700BFBE
S11304A021120000ED110000D5100000E51000003D
S11304B0EFF31083036072B6BFF35F8F7047BFF32F
S11304C05F8F036883F310887047000008B5024B00
S11304D01860024B984708BD90000020990E000058
S11304E070B50D461646044668B151B10120342258
S11304F00649074B984723683246294620469847C1
S113050070BD0020F3E70020F1E700BF5C1200009B
S1130510FD07000070B50D461646044668B151B19A
S113052001203D220649074B984763683246294615
S11305302046984770BD0020F3E70020F1E700BF94
S11305405C120000FD07000008B500238362C36944
S11305501BB1A0F108021046984708BD08B5002356
S11305608362436A1BB1A0F108021046984708BD94
S113057038B50446A0F108052C30034B9847236A8C
S11305800BB12846984738BD9108000070B50E4657
S113059015460446D8B1E1B1EAB9002040F23B1255
S11305A00F49104B9847B4F84420B4F84C309A42A1
S11305B013D1A664A4F84C500023A4F844300123BA
S11305C0236304F10800084B9847284670BD0020B7
S11305D0E4E70020E2E70120E0E76FF01B0070BDD4
S11305E070120000FD070000B30D000010B50446B2
S11305F0838FB0F84420934209D0026C591C818740
S1130600D15C044B98472046034B984710BD034BDD
S1130610984710BDAD0D0000B30D0000BB0D0000E8
S11306202DE9F04182B0884616460546A0B1A9B12D
S1130630B2B900204FF4AC721249134B984701A889
S1130640124B984734352846114B9847074601A862
S1130650104B984700240BE00020EBE70020E9E76B
S11306600120E7E70134A4B2414428460A4B9847E5
S11306702146A74201D9B442F4D3204602B0BDE8D2
S1130680F08100BF70120000FD070000B1040000FB
S1130690D1080000BF04000049080000F8B50D4669
S11306A016461F46044618B321B32AB333BB0020B1
S11306B03A221549154B98473A46314604F134001D
S11306C0134B9847E0B9294604F10800114B9847A9
S11306D0034658B9104A6260104A2260104AA26068
S11306E0104AE260104A2261104A62611846F8BD5D
S11306F00020DDE70020DBE70020D9E70120D7E771
S11307006FF00C03F2E700BF70120000FD07000059
S113071005080000150D0000210600008D050000ED
S1130720ED05000071050000490500005D050000AD
S113073010B5044661220649003018BF0120054B5C
S1130740984704F10800044B9847002010BD00BFEF
S113075070120000FD070000990D000038B50C462A
S1130760054650B139B1012077220549054B984718
S11307702560002038BD0020F6E70020F4E700BF24
S113078070120000FD07000070B50C4616460546C1
S113079083221749003018BF0120164B9847012CBB
S11307A010D024B1022C18D06FF00C0070BDAE62D2
S11307B0321C18BF0122012105F108000E4B984795
S11307C0002070BD6E62321C18BF0122022105F1A7
S11307D00800094B9847002070BDEE62321C18BF18
S11307E00122032105F10800034B9847002070BD46
S11307F070120000FD070000C50D000000B900BE26
S11308007047000070B50E461546044678B181B1B4
S11308108AB9002028220A490A4B98476B1E1D42B8
S11308200BD163600020A060E060266070BD0020F2
S1130830F0E70020EEE70120ECE76FF00C0070BD5C
S113084090120000FD07000038B50D460446A8B11B
S113085091B1012040220C490C4B9847E268A368EF
S11308609A420DD0226861680B40D35C2B70A36858
S11308700133A360002038BD0020EBE70020E9E746
S11308806FF0090038BD00BF90120000FD070000A2
S113089038B50D46044651220B49003018BF0120DB
S11308A00A4B98472268E36861680B40D554E368B3
S11308B0A2689A1A61688A4201D9591AA16001335F
S11308C0E360002038BD00BF90120000FD07000067
S11308D010B5044667220549003018BF0120044BB7
S11308E09847E068A368C01A10BD00BF90120000CA
S11308F0FD0700000346064A126822B1044A106844
S11309000344136070470349014A1160F6E700BFCE
S1130910940000201802012010B5094A13889BB2E4
S11309201380084B9847084B9847084B9847082072
S1130930074CA047074B984740F6F770A04710BDF7
S113094000400041A5090000C50900009909000004
S113095059090000C909000010F0010F08D00B4A22
S11309600B4B1A620A4B5A6843F6FD731A42F9D1CB
S113097010F0080F08D0074A054BDA62044B5A6896
S113098043F6FD731A42F9D1704700BF0601010016
S1130990001C0040050101000122014B5A717047FF
S11309A000080040064B42F286029A8200229A75A1
S11309B0DA75DA6902F47C52DA6101221A7470473A
S11309C00014004070470000364A136A23F00F03F6
S11309D043F004031362334B5A6843F6FD731A421F
S11309E0F9D1304B5B6813F0040FFAD12E4B00227F
S11309F01A772E4A9A622C4B93F82C3013F0100F6E
S1130A00F9D10022284B83F82020274B93F82C306F
S1130A1013F0040FF9D10222234B1A77224B93F8D7
S1130A202C3013F0020FF9D11F4B5A6A5A621E4B35
S1130A3093F82C3013F0080FF9D180221A4B83F865
S1130A402020194B93F82C3013F0040FF9D1164BD6
S1130A5093F8203013F0010F1DD0134B1B6903F4DE
S1130A601063B3F5106FF8D10E4B5B68002BFBD10C
S1130A700C4A136A23F00F0343F006031362094B75
S1130A805A6843F6FD731A42F9D1064B5B6813F0BA
S1130A90040FFAD17047044B1B6913F4807FFAD01A
S1130AA0E2E700BF001C0040001000400000010409
S1130AB000B583B00D4B9B78DBB20193019B13F01F
S1130AC0020F06D00A4B1B681BB1084A50689847AE
S1130AD009E0019B13F0010F05D0054B5B6813B1CE
S1130AE0024A5068984703B05DF804FB00000241D5
S1130AF00001002070B487B006466C460C4D0FCD43
S1130B000FC495E8030084E80300002005280AD8F0
S1130B1006AB03EB800353F8183CB34201D0013019
S1130B20F4E7C0B200E0002007B070BC704700BF1B
S1130B30B412000010B58469237E13F0010F03D0B2
S1130B40A37D13F0010F12D1237E13F0020F03D003
S1130B50A37D13F0020F0FD1237E13F0040F15D0E1
S1130B60638B03F0370363B1FF23638310BD012359
S1130B7023750368984710BD02232375836898473B
S1130B8010BD4368A16AC9B2984710BD237EDB0932
S1130B9000D110BD80232376C3689847638B9BB232
S1130BA06383F6E7B0F1864F00D07047014B1960BC
S1130BB0FBE700BF9800002008B5044B984780006D
S1130BC0C0B22E3000F0FE0008BD00BFF50A0000E0
S1130BD008B50C4B9847002343B140F26B220A49F5
S1130BE000200A4B98470023184608BD03EB430234
S1130BF0D100074A0A44127E9042F5D00133DBB299
S1130C00EAE700BFF50A000020130000FD0700001A
S1130C10B412000038B504463C4B9847E36913F01E
S1130C20010F22D100EB4003DA00394B1344DA6997
S1130C3002F01C02E36913F0030FFBD1236813F0E5
S1130C40020F0BD0236823F002032360E36913F03F
S1130C50030FFBD1E36913F0020FFBD142F0010251
S1130C602260E36913F0030FFBD1E36913F0010F72
S1130C70FBD100EB4003DA00254B1344DB6923600E
S1130C80E36913F0030FFBD100EB4003DA00204BC0
S1130C9013441B6A6360E36913F01F0FFBD1420026
S1130CA00244D1001A4B0B445A6AA260DB6913F464
S1130CB0005F0AD113F4C04F07D100EB4003DA0000
S1130CC0134B13441B8DA3810FE042000244D10057
S1130CD00F4B0B44198DA28961F30C02A28193F886
S1130CE02A20A38962F34F33A381094A43001D18C4
S1130CF0E9000D46114491F82B10A1732A4492F88F
S1130D002C3084F83030002038BD00BFD10B0000F7
S1130D10B412000070B50C460646CB2218490030C8
S1130D2018BF0120174B98472046174B9847054694
S1130D3008B1284670BDB46131462046134B98472C
S1130D402046134B9847002416E0410900F01F0287
S1130D50012393400F4A01F1200642F82630BFF3E5
S1130D604F8FBFF36F8F01F1600642F8263042F8CF
S1130D7021300130C0B20134032CE6D9D9E700BFD9
S1130D8020130000FD070000150C0000A50B000057
S1130D90B90B000000E100E08269136843F002032C
S1130DA01360D36913F0030FFBD170478369996211
S1130DB07047836901229A757047836902229A7584
S1130DC07047000070B50C461546064640F22B22CB
S1130DD01649003018BF0120154B984734B1022C36
S1130DE004D0012C11D0032C17D070BDB36935B9D0
S1130DF001221A75B3692DB902221A7570BD012238
S1130E009A75F7E702229A7570BDB36915B9042281
S1130E101A7570BD04229A7570BDB36915B180222C
S1130E209A75E2E780221A7570BD00BF2013000096
S1130E30FD07000008B5024B1868024B984708BD2F
S1130E4098000020350B000008B5024B1868024BCF
S1130E50984708BD98000020350B000008B5024BE8
S1130E601868024B984708BD98000020350B000015
S1130E7008B5024B1868024B984708BD980000203B
S1130E80350B0000034B6FF07F425A6005221A6055
S1130E90704700BF10E000E008B5014B984708BD5B
S1130EA0850E00000022014B1A7070479C00002040
S1130EB010B582B0012201A92E4B18682E4B984719
S1130EC0C0B218B32D4B5B687F2B21DC9DF8041056
S1130ED02B4AD1540133294A53600EE0591E284A43
S1130EE0D05C505401337F2BF8DD9DF80420244B53
S1130EF083F87F208022214B5A60204B5B68032BB0
S1130F0004DD5A1E1E498A5C0A2A03D002B010BDB1
S1130F100123E8E7023BCB5C0D2BF7D10222174BF0
S1130F201A72052217491648174B984718B101221F
S1130F30124B5A72EAE7154A12491148144B984762
S1130F4004461449144B984730B94FF48042134B6C
S1130F505A610122094B1A72114920460E4B9847D7
S1130F600028E4D14FF480420C4B9A610122034BD8
S1130F701A72DCE710010020150500009C00002017
S1130F80940100203C130000FD11000048130000F0
S1130F90590400004C130000D911000000800041E6
S1130FA05013000038B52B4B98472B4C2B4A01218A
S1130FB020462B4DA8472B4A00212046A8472A4902
S1130FC020462A4B98472046294B984715E0002293
S1130FD02849CA5428494A600133274A526893422F
S1130FE0F5DB0022244B5A720BE00023F5E7224B79
S1130FF01B786BB1204B1B78DBB11F4B5B7A002B4A
S1131000F3D11D4B1B7A012BF1D0022BF2D0F4E764
S1131010194B00221A721949194A106808609288FB
S11310208A8001221A7005220F4B1868154B9847C5
S1131030E0E7114A1372114C134B03CB206061603B
S11310400123137007222146074B18680D4B98475C
S1131050D3E700BFD1020000B0000020A50E0000BD
S113106089070000B10E0000100100205D07000098
S113107031070000940100209C000020140100208E
S113108054130000E10400005C13000070B50D4E21
S11310900D4CA41BA4100025A54209D10B4E0C4CE9
S11310A000F090F9A41BA4100025A54205D170BD41
S11310B056F8253098470135EEE756F8253098471D
S11310C00135F2E7D0130000D0130000D013000064
S11310D0D4130000024B0146186800F00FB800BF9B
S11310E00000002010B5431E0A44914200D110BDF7
S11310F011F8014B03F8014FF7E7000070B5CD1C60
S113110025F0030508350C2D38BF0C25002D0646A7
S113111001DBA94203D90C233360002070BD00F029
S11311209AF8234A1468214691B9224C23681BB9C2
S1131130304600F041F820602946304600F03CF883
S1131140431C26D10C233360304600F085F8E4E7D5
S11311500B685B1B1AD40B2B0FD90B60CD50CC182A
S1131160304600F079F804F10B00231D20F007004D
S1131170C31A1BD05A42E25070BD8C420DBF636843
S11311804B686360136018BF0C46E9E70C46496876
S1131190CAE7C41C24F00304A04205D0211A304637
S11311A000F00AF80130CDD02560D9E770BD00BF4A
S11311B0A8000020AC00002038B5064C00230546EA
S11311C008462360FFF796FB431C02D1236803B152
S11311D02B6038BD1402002010F8012B11F8013BDC
S11311E0012A28BF9A42F7D0D01A7047034613F851
S11311F0012B002AFBD1181A0138704710B56AB1C7
S11312000139841810F8013B11F8012F934203D1DE
S1131210A04201D0002BF5D1981A10BD104610BD84
S1131220F0B5037833B1034618465E1C1B7833B916
S11312301846F0BD0B78002B18BF0020F0BD4D1EE2
S1131240441E15F8012F002AF3D014F8017F9742A9
S11312503346F6D0E8E77047704700002E2E2F681B
S1131260616C2F7372632F68616C5F696F2E63000A
S11312702E2E2F68616C2F7372632F68616C5F75FB
S1131280736172745F6173796E632E630000000092
S11312902E2E2F68616C2F7574696C732F737263B3
S11312A02F7574696C735F72696E676275666665C3
S11312B0722E6300003000400034004000200141E1
S11312C0004001410000004300040043040000000A
S11312D00400104040000300020070002BF60000E0
S11312E000000000000000000000000000000000FA
S11312F000000000000000000000000000000000EA
S113130000000000000000000000000000000000D9
S113131000000000000000000000000000000000C9
S11313202E2E2F68706C2F736572636F6D2F68702B
S11313306C5F736572636F6D2E6300006C6564305F
S1131340617578323D0000000D0A00006F6E0000E8
S11313506F66660041434B0D0A0000004E4F414347
S11313604B0D0A0000000000000000000000000017
S11313700000000000000000000000000000000069
S11313800000000000000000000000000000000059
S11313900000000000000000000000000000000049
S11313A00000000000000000000000000000000039
S11313B00000000000000000000000000000000029
S11313C000000000F8B500BFF8BC08BC9E4670479A
S11313D089020000F8B500BFF8BC08BC9E467047FF
S10713E0650200009E
S11313E4040000200000000084130000A413000083
S11313F4641300000000000000000000000000006E
S113140400000000000000000000000000000000D4
S113141400000000000000000000000000000000C4
S113142400000000000000000000000000000000B4
S113143400000000000000000000000000000000A4
S107144400000000A0
S9030000FC
