S01000006D61696E436172642E73726563F5
S1130000F8040120E1020000DD020000DD0200002E
S1130010DD020000DD020000DD020000000000003F
S1130020000000000000000000000000DD020000ED
S1130030DD02000000000000DD020000DD0200001F
S1130040DD020000DD020000DD020000DD02000030
S1130050DD020000DD020000DD020000DD02000020
S1130060DD020000DD020000DD020000DD02000010
S1130070DD020000DD020000DD020000DD02000000
S1130080DD020000DD020000DD020000DD020000F0
S1130090DD020000DD020000DD020000DD020000E0
S11300A0DD020000DD020000DD020000DD020000D0
S11300B0DD020000DD020000DD020000DD020000C0
S11300C0DD020000DD020000DD020000DD020000B0
S11300D0DD020000DD020000DD020000DD020000A0
S11300E0DD020000DD02000000000000000000004E
S11300F0000000000D0C0000DD020000DD02000025
S1130100DD020000DD020000DD020000DD0200006F
S1130110DD020000DD020000DD020000DD0200005F
S1130120DD020000DD020000B10F0000C50F000079
S1130130D90F0000ED0F00000110000015100000A1
S1130140291000003D10000051100000651000004F
S1130150791000008D100000000000000000000075
S1130160000000000000000000000000000000008B
S11301700000000000000000DD020000DD020000BD
S1130180DD020000DD020000DD020000DD020000EF
S113019000000000DD020000DD020000DD020000BE
S11301A0DD020000DD020000DD020000DD020000CF
S11301B0DD020000DD020000DD020000DD020000BF
S11301C0DD020000DD020000DD020000DD020000AF
S11301D0DD020000DD020000DD020000DD0200009F
S11301E0DD020000DD020000DD020000DD0200008F
S11301F0DD020000DD020000DD020000DD0200007F
S1130200DD0200000000000000000000DD0200002C
S1130210DD020000DD020000DD020000DD0200005E
S1130220DD020000DD020000DD020000DD0200004E
S1130230DD020000DD020000DD020000DD0200003E
S1130240DD020000DD020000DD020000DD0200002E
S1130250DD020000DD020000DD020000DD0200001E
S11302600000000010B5054C237833B9044B13B1DA
S11302700448AFF300800123237010BD6400002004
S113028000000000281A00000C4B43B10C480D4933
S113029010B5AFF300800C48036823B910BD0A48B9
S11302A0036833B97047094B002BF7D0BDE8104001
S11302B01847064B002BF5D0184700BF000000007C
S11302C0281A000068000020281A0000000000001E
S11302D008B5014B984708BD5D050000FEE7000026
S11302E008B5154B154A9A4209D0134B134A03E03B
S11302F0116819600433043211498B42F8D3114B4D
S113030002E000221A6004330F4A9342F9D30F4BE0
S11303100F4A22F07F029A60D3F8882042F47002D8
S1130320C3F88820BFF34F8FBFF36F8F094B9847F3
S1130330094B9847FEE700BF00000020281A000080
S11303406400002064000020F804002000ED00E0B8
S11303500000000049160000BD130000064B4022B7
S1130360C3F8E0204322C3F88C20044A936943F481
S113037080639361704700BF001C00400008004088
S1130380104B93F8562002F0FE0242F0010283F86B
S1130390562093F83B2002F0F00242F0020283F868
S11303A03B2093F8572002F0FE0242F0010283F84A
S11303B0572093F83B2002F00F0242F0200283F80A
S11303C03B2070470080004110B582B0064B98472F
S11303D0002300931023054A05490648064CA0470C
S11303E0064B984702B010BD5D030000800000205A
S11303F000400141E8000020F507000081030000EF
S1130400064B4022C3F808214322C3F88C20044A37
S1130410136A43F001031362704700BF001C0040DD
S113042000080040104B93F8CC2002F0FE0242F08A
S1130430010283F8CC2093F8B62002F0F00242F0D7
S1130440020283F8B62093F8CD2002F0FE0242F0B7
S1130450010283F8CD2093F8B62002F00F0242F097
S1130460200283F8B62070470080004110B582B0A6
S1130470074B9847002300931023064A4FF0864108
S11304800548064CA047064B984702B010BD00BF74
S1130490010400009000002088010020F5070000FE
S11304A025040000064B4022C3F80C214322C3F864
S11304B08C20044A136A43F002031362704700BF9E
S11304C0001C004000080040104B93F8D02002F0BC
S11304D0FE0242F0010283F8D02093F8B82002F023
S11304E0F00242F0020283F8B82093F8D12002F01F
S11304F0FE0242F0010283F8D12093F8B82002F002
S11305000F0242F0200283F8B820704700800041B7
S113051010B582B0064B9847002300931023054A78
S113052005490648064CA047064B984702B010BD43
S1130530A5040000A00000200004004338010020AE
S1130540F5070000C904000008B50248024B9847AB
S113055008BD00BF10E000E02506000008B50E4B02
S113056098470E4B4FF480429A619A604FF04022B4
S11305709A624FF040429A6293F84E2002F0FE02D3
S113058083F84E20064B9847064B9847064B9847EE
S1130590064B984708BD00BF710A00000080004167
S11305A0C90300006D0400001105000049050000A6
S11305B0F8B505460E4617460F4B98470446B0B1AA
S11305C030460E4B98472618394628460A4B98471A
S11305D0044660B1851B002D0BDD681C084B984751
S11305E004462A463146074B984700236355204664
S11305F0F8BD0024FBE700BFDD170000A9170000C9
S113060091160000A1160000EFF31083036072B688
S1130610BFF35F8F7047BFF35F8F036883F3108866
S11306207047000008B5024B1860024B984708BD9C
S1130630B0000020B510000070B50D461646044603
S113064068B151B1012034220649074B9847236809
S1130650324629462046984770BD0020F3E7002023
S1130660F1E700BF181800005509000070B50D46E9
S11306701646044668B151B101203D220649074B94
S113068098476368324629462046984770BD002043
S1130690F3E70020F1E700BF181800005509000037
S11306A008B500238362C3691BB1A0F10802104698
S11306B0984708BD08B500238362436A1BB1A0F1C3
S11306C008021046984708BD38B50446A0F108054D
S11306D02C30034B9847236A0BB12846984738BD02
S11306E0E909000070B50E4615460446D8B1E1B1DB
S11306F0EAB9002040F23B120F49104B9847B4F876
S11307004420B4F84C309A4213D1A664A4F84C5057
S11307100023A4F844300123236304F10800084BA8
S11307209847284670BD0020E4E70020E2E7012056
S1130730E0E76FF01B0070BD2C18000055090000A5
S11307402F0F000010B50446838FB0F84420934265
S113075009D0026C591C8187D15C044B9847204610
S1130760034B984710BD034B984710BD290F000059
S11307702F0F0000370F00002DE9F04182B08846AA
S113078016460546A0B1A9B1B2B900204FF4AC7227
S11307901249134B984701A8124B98473435284601
S11307A0114B9847074601A8104B984700240BE0CB
S11307B00020EBE70020E9E70120E7E70134A4B2D9
S11307C0414428460A4B98472146A74201D9B442DE
S11307D0F4D3204602B0BDE8F08100BF2C1800001D
S11307E05509000009060000290A00001706000048
S11307F0A1090000F8B50D4616461F46044618B375
S113080021B32AB333BB00203A221549154B98472C
S11308103A46314604F13400134B9847E0B929466F
S113082004F10800114B9847034658B9104A626016
S1130830104A2260104AA260104AE260104A226103
S1130840104A62611846F8BD0020DDE70020DBE7AE
S11308500020D9E70120D7E76FF00C03F2E700BFCF
S11308602C180000550900005D090000910E0000DD
S113087079070000E506000045070000C9060000EE
S1130880A1060000B506000010B504466122064921
S1130890003018BF0120054B984704F10800044BB1
S11308A09847002010BD00BF2C1800005509000017
S11308B0150F000038B50C46054650B139B101207A
S11308C077220549054B98472560002038BD002054
S11308D0F6E70020F4E700BF2C18000055090000DB
S11308E070B50C461646054683221749003018BFDA
S11308F00120164B9847012C10D024B1022C18D09B
S11309006FF00C0070BDAE62321C18BF01220121D1
S113091005F108000E4B9847002070BD6E62321C32
S113092018BF0122022105F10800094B9847002055
S113093070BDEE62321C18BF0122032105F10800CC
S1130940034B9847002070BD2C1800005509000087
S1130950410F000000B900BE7047000070B50E469C
S11309601546044678B181B18AB9002028220A4983
S11309700A4B98476B1E1D420BD163600020A06098
S1130980E060266070BD0020F0E70020EEE7012063
S1130990ECE76FF00C0070BD4C1800005509000026
S11309A038B50D460446A8B191B1012040220C4946
S11309B00C4B9847E268A3689A420DD0226861689C
S11309C00B40D35C2B70A3680133A360002038BDB7
S11309D00020EBE70020E9E76FF0090038BD00BF15
S11309E04C1800005509000038B50D460446512244
S11309F00B49003018BF01200A4B98472268E3686E
S1130A0061680B40D554E368A2689A1A61688A4207
S1130A1001D9591AA1600133E360002038BD00BF39
S1130A204C1800005509000010B50446672205491A
S1130A30003018BF0120044B9847E068A368C01A2F
S1130A4010BD00BF4C180000550900000346064ABB
S1130A50126822B1044A10680344136070470349C2
S1130A60014A1160F6E700BFB4000020F804012039
S1130A7010B50A4A13889BB243F480731380084B61
S1130A809847084B9847084B98470820074CA047BD
S1130A90074B984740F6F770A04710BD004000414F
S1130AA0010B0000210B0000F50A0000B50A00004C
S1130AB0250B000010F0010F08D00B4A0B4B1A62F3
S1130AC00A4B5A6843F6FD731A42F9D110F0080F25
S1130AD008D0074A054BDA62044B5A6843F6FD73A3
S1130AE01A42F9D1704700BF06010100001C004002
S1130AF0050101000122014B5A71704700080040B2
S1130B00064B42F286029A8200229A75DA75DA69F5
S1130B1002F47C52DA6101221A7470470014004016
S1130B2070470000364A136A23F00F0343F00403AE
S1130B301362334B5A6843F6FD731A42F9D1304BB2
S1130B405B6813F0040FFAD12E4B00221A772E4A59
S1130B509A622C4B93F82C3013F0100FF9D1002229
S1130B60284B83F82020274B93F82C3013F0040FE4
S1130B70F9D10222234B1A77224B93F82C3013F02D
S1130B80020FF9D11F4B5A6A5A621E4B93F82C304C
S1130B9013F0080FF9D180221A4B83F82020194B47
S1130BA093F82C3013F0040FF9D1164B93F820303E
S1130BB013F0010F1DD0134B1B6903F41063B3F53D
S1130BC0106FF8D10E4B5B68002BFBD10C4A136AF3
S1130BD023F00F0343F006031362094B5A6843F6EC
S1130BE0FD731A42F9D1064B5B6813F0040FFAD176
S1130BF07047044B1B6913F4807FFAD0E2E700BF0F
S1130C00001C0040001000400000010400B583B047
S1130C100D4B9B78DBB20193019B13F0020F06D0BE
S1130C200A4B1B681BB1084A5068984709E0019BAE
S1130C3013F0010F05D0054B5B6813B1024A5068ED
S1130C40984703B05DF804FB00000241D80100207E
S1130C5070B487B006466C460C4D0FCD0FC495E8B2
S1130C60030084E80300002005280AD806AB03EB40
S1130C70800353F8183CB34201D00130F4E7C0B20A
S1130C8000E0002007B070BC704700BF701800007F
S1130C9010B58469237E13F0010F03D0A37D13F0F4
S1130CA0010F12D1237E13F0020F03D0A37D13F0A2
S1130CB0020F0FD1237E13F0040F15D0638B03F0C2
S1130CC0370363B1FF23638310BD012323750368D6
S1130CD0984710BD022323758368984710BD436865
S1130CE0A16AC9B2984710BD237EDB0900D110BDAB
S1130CF080232376C3689847638B9BB26383F6E7AC
S1130D00094B984206D0B0F1864F06D0074B984263
S1130D1006D07047064B1960F5E7054B5960F5E7B7
S1130D20034B9960F5E700BF004001410004004314
S1130D30B800002008B5044B98478000C0B22E309C
S1130D4000F0FE0008BD00BF510C000008B50C4BBC
S1130D5098470023022B0AD803EB4302D100094A27
S1130D600A44127E904209D00133DBB2F2E740F22A
S1130D706F2205490020054B98470023184608BDFB
S1130D80510C0000701800000C19000055090000F7
S1130D9038B504463C4B9847E36913F0010F22D160
S1130DA000EB4003DA00394B1344DA6902F01C0209
S1130DB0E36913F0030FFBD1236813F0020F0BD088
S1130DC0236823F002032360E36913F0030FFBD1CC
S1130DD0E36913F0020FFBD142F001022260E369E0
S1130DE013F0030FFBD1E36913F0010FFBD100EB08
S1130DF04003DA00254B1344DB692360E36913F0F5
S1130E00030FFBD100EB4003DA00204B13441B6AB1
S1130E106360E36913F01F0FFBD142000244D10069
S1130E201A4B0B445A6AA260DB6913F4005F0AD1BF
S1130E3013F4C04F07D100EB4003DA00134B134403
S1130E401B8DA3810FE042000244D1000F4B0B44E1
S1130E50198DA28961F30C02A28193F82A20A38937
S1130E6062F34F33A381094A43001D18E9000D467C
S1130E70114491F82B10A1732A4492F82C3084F871
S1130E803030002038BD00BF4D0D00007018000048
S1130E9070B50C460646CF221849003018BF012011
S1130EA0174B98472046174B9847054608B12846E4
S1130EB070BDB46131462046134B98472046134B0E
S1130EC09847002416E0410900F01F0201239340D3
S1130ED00F4A01F1200642F82630BFF34F8FBFF3CB
S1130EE06F8F01F1600642F8263042F8213001305C
S1130EF0C0B20134032CE6D9D9E700BF0C190000B5
S1130F0055090000910D0000010D0000350D000091
S1130F1000E100E08269136843F002031360D369BF
S1130F2013F0030FFBD1704783699962704783699B
S1130F3001229A757047836902229A7570470000EE
S1130F4070B50C461546064640F22F22164900306D
S1130F5018BF0120154B984734B1022C04D0012C42
S1130F6011D0032C17D070BDB36935B901221A759D
S1130F70B3692DB902221A7570BD01229A75F7E77B
S1130F8002229A7570BDB36915B904221A7570BD31
S1130F9004229A7570BDB36915B180229A75E2E78F
S1130FA080221A7570BD00BF0C190000550900009D
S1130FB008B5024B1868024B984708BDB8000020DA
S1130FC0910C000008B5024B1868024B984708BD05
S1130FD0B8000020910C000008B5024B1868024BC1
S1130FE0984708BDB8000020910C000008B5024BDA
S1130FF01868024B984708BDB8000020910C000007
S113100008B5024B5868024B984708BDB800002049
S1131010910C000008B5024B5868024B984708BD74
S1131020B8000020910C000008B5024B5868024B30
S1131030984708BDB8000020910C000008B5024B89
S11310405868024B984708BDB8000020910C000076
S113105008B5024B9868024B984708BDB8000020B9
S1131060910C000008B5024B9868024B984708BDE4
S1131070B8000020910C000008B5024B9868024BA0
S1131080984708BDB8000020910C000008B5024B39
S11310909868024B984708BDB8000020910C0000E6
S11310A0034B6FF07F425A6005221A60704700BFFD
S11310B010E000E008B5014B984708BDA1100000FE
S11310C00022014B1A707047C40000200022014B1B
S11310D05A707047C40000200022014B9A70704778
S11310E0C400002000B583B0012201A9224B186876
S11310F0224B9847C0B218B3214B5B687F2B22DC8C
S11311009DF804101F4AD15401331D4A53600EE068
S1131110591E1C4AD05C505401337F2BF8DD9DF8D6
S11311200420184B83F87F208022154B5A60144BFF
S11311305B68032B04DD5A1E12498A5C0A2A04D018
S113114003B05DF804FB0123E7E7023BCB5C0D2B06
S1131150F6D102220A4B1A7203220B4909480B4B9F
S1131160984720B9064B00225A7201221A720122B2
S1131170034B9A72E4E700BFEC0200206D06000006
S1131180C40000207404002028190000B9170000CE
S113119000B583B0012201A9224B1868224B98475D
S11311A0C0B218B3214BDB687F2B22DC9DF80410FE
S11311B01F4AD15401331D4AD3600EE0591E1C4A04
S11311C0D05C505401337F2BF8DD9DF80420184B7C
S11311D083F87F208022154BDA60144BDB68032BE5
S11311E004DD5A1E12498A5C0A2A04D003B05DF851
S11311F004FB0123E7E7023BCB5C0D2BF6D1022273
S11312000A4B1A7403220B4909480B4B984720B91F
S1131210064B00225A7201221A740122034B5A749B
S1131220E4E700BFF00200206D060000C4000020C7
S1131230F403002028190000B917000010B582B08B
S1131240012201A94F4B18684F4B9847C0B218B3FD
S11312504E4B5B697F2B21DC9DF804104C4AD15422
S113126001334A4A53610EE0591E494AD05C505436
S113127001337F2BF8DD9DF80420454B83F87F2054
S11312808022424B5A61414B5B69032B04DD5A1E99
S11312903F498A5C0A2A03D002B010BD0123E8E763
S11312A0023BCB5C0D2BF7D10222384B1A76092274
S11312B038493748384B984788B109223749344868
S11312C0354B9847002829D0092235493048324BFC
S11312D0984700283CD001222C4B9A76DCE7314A0F
S11312E02C492B48304B984704463049304B98479B
S11312F030B94FF480422F4B5A610122234B1A76A6
S11313002D4920462A4B98470028D6D14FF48042D5
S1131310284B9A6101221D4B1A76CEE7214A1F49B8
S11313201B48214B984704462049214B984718B93C
S1131330164B01225A761A761F4920461C4B9847B1
S11313400028C1D1114B02225A7601221A76BBE73A
S1131350144A13490E48144B984704461349144B36
S1131360984718B9094B01225A721A761249204635
S11313700F4B98470028AED1044B02225A72012227
S11313801A76A8E7E80100206D060000C4000020DA
S11313906C0200202C190000B9170000401900004D
S11313A04C190000A4190000B10500003819000010
S11313B095170000008000413C190000F8B5844BEB
S11313C09847844D844A01212846844CA047844A86
S11313D000212846A04783492846834FB84728461A
S11313E0824EB047824D834A01212846A047824A53
S11313F000212846A04781492846B8472846B047D7
S11314007F4D804A01212846A0477F4A0021284673
S1131410A0477E492846B8472846B04787E00021C0
S11314207B4AD15401337B4A52699342F7DB794BAF
S113143000225A619A767EE00023F4E70021764A7E
S1131440D1540133734AD2689342F7DB714B0022C3
S1131450DA605A7473E00023F4E700216F4AD15430
S113146001336C4A52689342F7DB6A4B00225A609C
S11314709A7268E00023F4E7664B1B78002B68D16E
S1131480644B00221A766649664A1068086092889E
S11314908A8001221A700522524B1868624B9847C1
S11314A057E05C4A13765E4C604B03CB206061606E
S11314B001231370072221464A4B18685A4B984758
S11314C04BE0544B5B78002B4DD1524D03236B7290
S11314D0574C584B07CB20606160A2601B88A381E6
S11314E001236B700D222146444B18684E4B9847DC
S11314F039E0484B5B78002B35D1464D03236B72A2
S11315004B4C4D4B07CB20606160A2601A889B78DE
S1131510A281A37301236B700E222146374B1868F6
S1131520414B98471FE03B4B9B78002B3BD0394BFA
S11315309B7E002B80D1374B5B7C002B8BD1354BB2
S11315409B7A002B96D1334B1B7E012B94D0022B1C
S113155003D1304B1B78002BA3D02E4B5B7A012B8D
S1131560AFD0022BC5D02B4B5B7E012BDBD0022BE3
S1131570DDD1284B9B78002BD9D1264D03236B76E4
S11315802E4C2F4B07CB20606160A2601A889B7899
S1131590A281A3730123AB700E2221461B4B186852
S11315A0214B9847C3E71B4D03236B76234C254BF4
S11315B007CB20606160A2601B88A3810123AB700C
S11315C00D222146114B1868174B9847AFE700BF0F
S11315D0D102000038010020C1100000E108000021
S11315E03D120000E8010020B50800008908000051
S11315F0E8000020CD10000091110000F00200204E
S113160088010020D9100000E5100000EC02002041
S11316106C020020C4000020F403002074040020A5
S1131620F402002058190000390600006019000077
S1131630EC010020681900007819000074030020F0
S1131640981900008819000070B50D4E0D4CA41BAC
S1131650A4100025A54209D10B4E0C4C00F0D4F97E
S1131660A41BA4100025A54205D170BD56F8253051
S113167098470135EEE756F8253098470135F2E7EB
S1131680141A0000141A0000141A0000181A00009A
S1131690024B0146186800F00FB800BF000000209C
S11316A010B5431E0A44914200D110BD11F8014BFC
S11316B003F8014FF7E7000070B5CD1C25F00305D2
S11316C008350C2D38BF0C25002D064601DBA94238
S11316D003D90C233360002070BD00F09AF8234A2C
S11316E01468214691B9224C23681BB9304600F096
S11316F041F820602946304600F03CF8431C26D1CE
S11317000C233360304600F085F8E4E70B685B1B7C
S11317101AD40B2B0FD90B60CD50CC18304600F0E7
S113172079F804F10B00231D20F00700C31A1BD025
S11317305A42E25070BD8C420DBF63684B686360CF
S1131740136018BF0C46E9E70C464968CAE7C41C95
S113175024F00304A04205D0211A304600F00AF810
S11317600130CDD02560D9E770BD00BFE000002076
S1131770E400002038B5064C0023054608462360E3
S1131780FFF764F9431C02D1236803B12B6038BD11
S1131790F404002010F8012B11F8013B012A28BFA2
S11317A09A42F7D0D01A7047034613F8012B002A47
S11317B0FBD1181A0138704710B56AB10139841881
S11317C010F8013B11F8012F934203D1A04201D03C
S11317D0002BF5D1981A10BD104610BDF0B5037852
S11317E033B1034618465E1C1B7833B91846F0BD66
S11317F00B78002B18BF0020F0BD4D1E441E15F8B9
S1131800012F002AF3D014F8017F97423346F6D013
S1131810E8E77047704700002E2E2F68616C2F7325
S113182072632F68616C5F696F2E63002E2E2F68C0
S1131830616C2F7372632F68616C5F75736172746E
S11318405F6173796E632E63000000002E2E2F6893
S1131850616C2F7574696C732F7372632F7574695F
S11318606C735F72696E676275666665722E63007B
S1131870003000400034004000200141004001419C
S11318800000004300040043030000000400104073
S113189040000300020070002BF60000000000006E
S11318A00400000004001040400003000200700027
S11318B02BF60000000000000500000004001040AA
S11318C040000300020070002BF60000000000003E
S11318D00000000000000000000000000000000004
S11318E000000000000000000000000000000000F4
S11318F000000000000000000000000000000000E4
S11319000000000000000000000000002E2E2F68E0
S1131910706C2F736572636F6D2F68706C5F736585
S113192072636F6D2E63000041434B006C6564303D
S11319306D61696E3D0000006F6E00006F666600A9
S11319406C656430617578313D0000006C6564300D
S1131950617578323D00000041434B0D0A000000E0
S11319604E4F41434B0D0A006C656430617578320B
S11319703D6F6E0D0A0000006C656430617578324D
S11319803D6F66660D0A00006C65643061757831E0
S11319903D6F6E0D0A0000006C656430617578312E
S11319A03D6F66660D0A00000000000000000000A4
S11319B00000000000000000000000000000000023
S11319C00000000000000000000000000000000013
S11319D00000000000000000000000000000000003
S11319E000000000000000000000000000000000F3
S11319F000000000000000000000000000000000E3
S1131A000000000000000000F8B500BFF8BC08BCEE
S1131A109E46704789020000F8B500BFF8BC08BCB8
S10B1A209E46704765020000B8
S1131A280400002000000000C8190000E8190000A4
S1131A38A8190000000000000000000000000000D9
S1131A48000000000000000000000000000000008A
S1131A58000000000000000000000000000000007A
S1131A68000000000000000000000000000000006A
S1131A78000000000000000000000000000000005A
S1071A880000000056
S9030000FC
