S01000006D61696E436172642E73726563F5
S113000088030120E1020000DD020000DD0200009F
S1130010DD020000DD020000DD020000000000003F
S1130020000000000000000000000000DD020000ED
S1130030DD02000000000000DD020000DD0200001F
S1130040DD020000DD020000DD020000DD02000030
S1130050DD020000DD020000DD020000DD02000020
S1130060DD020000DD020000DD020000DD02000010
S1130070DD020000DD020000DD020000DD02000000
S1130080DD020000DD020000DD020000DD020000F0
S1130090DD020000DD020000DD020000DD020000E0
S11300A0DD020000DD020000DD020000DD020000D0
S11300B0DD020000DD020000DD020000DD020000C0
S11300C0DD020000DD020000DD020000DD020000B0
S11300D0DD020000DD020000DD020000DD020000A0
S11300E0DD020000DD02000000000000000000004E
S11300F000000000610B0000DD020000DD020000D2
S1130100DD020000DD020000DD020000DD0200006F
S1130110DD020000DD020000DD020000DD0200005F
S1130120DD020000DD020000F90E00000D0F0000EA
S1130130210F0000350F0000DD020000DD02000089
S1130140DD020000DD020000490F00005D0F000029
S1130150710F0000850F0000000000000000000087
S1130160000000000000000000000000000000008B
S11301700000000000000000DD020000DD020000BD
S1130180DD020000DD020000DD020000DD020000EF
S113019000000000DD020000DD020000DD020000BE
S11301A0DD020000DD020000DD020000DD020000CF
S11301B0DD020000DD020000DD020000DD020000BF
S11301C0DD020000DD020000DD020000DD020000AF
S11301D0DD020000DD020000DD020000DD0200009F
S11301E0DD020000DD020000DD020000DD0200008F
S11301F0DD020000DD020000DD020000DD0200007F
S1130200DD0200000000000000000000DD0200002C
S1130210DD020000DD020000DD020000DD0200005E
S1130220DD020000DD020000DD020000DD0200004E
S1130230DD020000DD020000DD020000DD0200003E
S1130240DD020000DD020000DD020000DD0200002E
S1130250DD020000DD020000DD020000DD0200001E
S11302600000000010B5054C237833B9044B13B1DA
S11302700448AFF300800123237010BD6400002004
S113028000000000041700000C4B43B10C480D495A
S113029010B5AFF300800C48036823B910BD0A48B9
S11302A0036833B97047094B002BF7D0BDE8104001
S11302B01847064B002BF5D0184700BF000000007C
S11302C0041700006800002004170000000000006C
S11302D008B5014B984708BDB9040000FEE70000CB
S11302E008B5154B154A9A4209D0134B134A03E03B
S11302F0116819600433043211498B42F8D3114B4D
S113030002E000221A6004330F4A9342F9D30F4BE0
S11303100F4A22F07F029A60D3F8882042F47002D8
S1130320C3F88820BFF34F8FBFF36F8F094B9847F3
S1130330094B9847FEE700BF0000002004170000A7
S113034064000020640000208803002000ED00E029
S11303500000000069130000B1110000064B4022A8
S1130360C3F8E0204322C3F88C20044A936943F481
S113037080639361704700BF001C00400008004088
S1130380104B93F8562002F0FE0242F0010283F86B
S1130390562093F83B2002F0F00242F0020283F868
S11303A03B2093F8572002F0FE0242F0010283F84A
S11303B0572093F83B2002F00F0242F0200283F80A
S11303C03B2070470080004110B582B0064B98472F
S11303D0002300931023054A05490648064CA0470C
S11303E0064B984702B010BD5D030000800000205A
S11303F000400141CC0000204907000081030000B7
S1130400064B4022C3F80C214322C3F88C20044A33
S1130410136A43F002031362704700BF001C0040DC
S113042000080040104B93F8D02002F0FE0242F086
S1130430010283F8D02093F8B82002F0F00242F0D1
S1130440020283F8B82093F8D12002F0FE0242F0B1
S1130450010283F8D12093F8B82002F00F0242F091
S1130460200283F8B82070470080004110B582B0A4
S1130470064B9847002300931023054A0549064874
S1130480064CA047064B984702B010BD010400007B
S113049090000020000400431C01002049070000D4
S11304A02504000008B50248024B984708BD00BF68
S11304B010E000E07905000008B50D4B98470D4B9E
S11304C04FF480429A619A604FF040229A624FF052
S11304D040429A6293F84E2002F0FE0283F84E20C6
S11304E0054B9847054B9847054B984708BD00BFF7
S11304F0C509000000800041C90300006D0400002C
S1130500A5040000F8B505460E4617460F4B98475C
S11305100446B0B130460E4B984726183946284653
S11305200A4B9847044660B1851B002D0BDD681CFF
S1130530084B984704462A463146074B9847002300
S113054063552046F8BD0024FBE700BFFD140000FE
S1130550C9140000B1130000C1130000EFF31083AD
S1130560036072B6BFF35F8F7047BFF35F8F03689A
S113057083F310887047000008B5024B1860024BE3
S1130580984708BDA0000020AD0F000070B50D46CF
S11305901646044668B151B1012034220649074B7E
S11305A098472368324629462046984770BD002064
S11305B0F3E70020F1E700BF38150000A9080000A8
S11305C070B50D461646044668B151B101203D226E
S11305D00649074B984763683246294620469847A0
S11305E070BD0020F3E70020F1E700BF38150000DC
S11305F0A908000008B500238362C3691BB1A0F1F8
S113060008021046984708BD08B500238362436A70
S11306101BB1A0F108021046984708BD38B504463E
S1130620A0F108052C30034B9847236A0BB12846E8
S1130630984738BD3D09000070B50E46154604467E
S1130640D8B1E1B1EAB9002040F23B120F49104B96
S11306509847B4F84420B4F84C309A4213D1A664B5
S1130660A4F84C500023A4F844300123236304F17C
S11306700800084B9847284670BD0020E4E7002096
S1130680E2E70120E0E76FF01B0070BD4C150000AD
S1130690A9080000770E000010B50446838FB0F857
S11306A04420934209D0026C591C8187D15C044BCD
S11306B098472046034B984710BD034B984710BDFD
S11306C0710E0000770E00007F0E00002DE9F0414E
S11306D082B0884616460546A0B1A9B1B2B9002039
S11306E04FF4AC721249134B984701A8124B984728
S11306F034352846114B9847074601A8104B9847B4
S113070000240BE00020EBE70020E9E70120E7E705
S11307100134A4B2414428460A4B98472146A742D3
S113072001D9B442F4D3204602B0BDE8F08100BF41
S11307304C150000A90800005D0500007D090000BB
S11307406B050000F5080000F8B50D4616461F4677
S1130750044618B321B32AB333BB00203A22154907
S1130760154B98473A46314604F13400134B9847E9
S1130770E0B9294604F10800114B9847034658B9DB
S1130780104A6260104A2260104AA260104AE26075
S1130790104A2261104A62611846F8BD0020DDE764
S11307A00020DBE70020D9E70120D7E76FF00C0336
S11307B0F2E700BF4C150000A9080000B1080000D2
S11307C0D90D0000CD06000039060000990600008E
S11307D01D060000F50500000906000010B50446DA
S11307E061220649003018BF0120054B984704F1E7
S11307F00800044B9847002010BD00BF4C150000B2
S1130800A90800005D0E000038B50C46054650B13D
S113081039B1012077220549054B9847256000200E
S113082038BD0020F6E70020F4E700BF4C150000B7
S1130830A908000070B50C461646054683221749E0
S1130840003018BF0120164B9847012C10D024B15A
S1130850022C18D06FF00C0070BDAE62321C18BFB1
S11308600122012105F108000E4B9847002070BDBC
S11308706E62321C18BF0122022105F10800094BE7
S11308809847002070BDEE62321C18BF012203217C
S113089005F10800034B9847002070BD4C1500007B
S11308A0A9080000890E000000B900BE70470000CE
S11308B070B50E461546044678B181B18AB9002058
S11308C028220A490A4B98476B1E1D420BD16360CC
S11308D00020A060E060266070BD0020F0E70020EA
S11308E0EEE70120ECE76FF00C0070BD6C15000022
S11308F0A908000038B50D460446A8B191B10120FD
S113090040220C490C4B9847E268A3689A420DD0E8
S1130910226861680B40D35C2B70A3680133A36029
S1130920002038BD0020EBE70020E9E76FF0090064
S113093038BD00BF6C150000A908000038B50D468D
S1130940044651220B49003018BF01200A4B984736
S11309502268E36861680B40D554E368A2689A1A78
S113096061688A4201D9591AA1600133E360002009
S113097038BD00BF6C150000A908000010B504467E
S113098067220549003018BF0120044B9847E068EE
S1130990A368C01A10BD00BF6C150000A9080000B0
S11309A00346064A126822B1044A106803441360DD
S11309B070470349014A1160F6E700BFA400002014
S11309C08803012010B50A4A13889BB243F480734C
S11309D01380084B9847084B9847084B98470820C2
S11309E0074CA047074B984740F6F770A04710BD47
S11309F000400041550A0000750A0000490A000041
S1130A00090A0000790A000010F0010F08D00B4A0F
S1130A100B4B1A620A4B5A6843F6FD731A42F9D11A
S1130A2010F0080F08D0074A054BDA62044B5A68E5
S1130A3043F6FD731A42F9D1704700BF0601010065
S1130A40001C0040050101000122014B5A7170474E
S1130A5000080040064B42F286029A8200229A75F0
S1130A60DA75DA6902F47C52DA6101221A74704789
S1130A700014004070470000364A136A23F00F0345
S1130A8043F004031362334B5A6843F6FD731A426E
S1130A90F9D1304B5B6813F0040FFAD12E4B0022CE
S1130AA01A772E4A9A622C4B93F82C3013F0100FBD
S1130AB0F9D10022284B83F82020274B93F82C30BF
S1130AC013F0040FF9D10222234B1A77224B93F827
S1130AD02C3013F0020FF9D11F4B5A6A5A621E4B85
S1130AE093F82C3013F0080FF9D180221A4B83F8B5
S1130AF02020194B93F82C3013F0040FF9D1164B26
S1130B0093F8203013F0010F1DD0134B1B6903F42D
S1130B101063B3F5106FF8D10E4B5B68002BFBD15B
S1130B200C4A136A23F00F0343F006031362094BC4
S1130B305A6843F6FD731A42F9D1064B5B6813F009
S1130B40040FFAD17047044B1B6913F4807FFAD069
S1130B50E2E700BF001C0040001000400000010458
S1130B6000B583B00D4B9B78DBB20193019B13F06E
S1130B70020F06D00A4B1B681BB1084A50689847FD
S1130B8009E0019B13F0010F05D0054B5B6813B11D
S1130B90024A5068984703B05DF804FB0000024124
S1130BA06C01002070B487B006466C460C4D0FCD26
S1130BB00FC495E8030084E80300002005280AD840
S1130BC006AB03EB800353F8183CB34201D0013069
S1130BD0F4E7C0B200E0002007B070BC704700BF6B
S1130BE09015000010B58469237E13F0010F03D023
S1130BF0A37D13F0010F12D1237E13F0020F03D053
S1130C00A37D13F0020F0FD1237E13F0040F15D030
S1130C10638B03F0370363B1FF23638310BD0123A8
S1130C2023750368984710BD02232375836898478A
S1130C3010BD4368A16AC9B2984710BD237EDB0981
S1130C4000D110BD80232376C3689847638B9BB281
S1130C506383F6E7064B984203D0064B984203D0D1
S1130C607047054B1960F8E7034B5960F8E700BF7C
S1130C700040014100040043A800002008B5044BD3
S1130C8098478000C0B22E3000F0FE0008BD00BFBF
S1130C90A50B000008B50C4B98470023012B0AD87C
S1130CA003EB4302D100094A0A44127E904209D060
S1130CB00133DBB2F2E740F26D2205490020054B17
S1130CC098470023184608BDA50B000090150000A6
S1130CD014160000A908000038B504463C4B984798
S1130CE0E36913F0010F22D100EB4003DA00394B22
S1130CF01344DA6902F01C02E36913F0030FFBD119
S1130D00236813F0020F0BD0236823F0020323603F
S1130D10E36913F0030FFBD1E36913F0020FFBD176
S1130D2042F001022260E36913F0030FFBD1E3698F
S1130D3013F0010FFBD100EB4003DA00254B134401
S1130D40DB692360E36913F0030FFBD100EB40037D
S1130D50DA00204B13441B6A6360E36913F01F0F2E
S1130D60FBD142000244D1001A4B0B445A6AA260E0
S1130D70DB6913F4005F0AD113F4C04F07D100EB11
S1130D804003DA00134B13441B8DA3810FE0420090
S1130D900244D1000F4B0B44198DA28961F30C025C
S1130DA0A28193F82A20A38962F34F33A381094ACD
S1130DB043001D18E9000D46114491F82B10A1734E
S1130DC02A4492F82C3084F83030002038BD00BF1B
S1130DD0950C00009015000070B50C460646CD2217
S1130DE01849003018BF0120174B98472046174B6D
S1130DF09847054608B1284670BDB461314620467F
S1130E00134B98472046134B9847002416E041099A
S1130E1000F01F02012393400F4A01F1200642F81B
S1130E202630BFF34F8FBFF36F8F01F1600642F896
S1130E30263042F821300130C0B20134032CE6D907
S1130E40D9E700BF14160000A9080000D90C00005F
S1130E50550C00007D0C000000E100E0826913687D
S1130E6043F002031360D36913F0030FFBD17047FF
S1130E70836999627047836901229A75704783690F
S1130E8002229A757047000070B50C461546064656
S1130E9040F22D221649003018BF0120154B984707
S1130EA034B1022C04D0012C11D0032C17D070BD06
S1130EB0B36935B901221A75B3692DB902221A75BD
S1130EC070BD01229A75F7E702229A7570BDB36965
S1130ED015B904221A7570BD04229A7570BDB369E0
S1130EE015B180229A75E2E780221A7570BD00BFA1
S1130EF014160000A908000008B5024B1868024B3C
S1130F00984708BDA8000020E50B000008B5024B77
S1130F101868024B984708BDA8000020E50B0000A4
S1130F2008B5024B1868024B984708BDA80000207A
S1130F30E50B000008B5024B1868024B984708BD42
S1130F40A8000020E50B000008B5024B5868024BCE
S1130F50984708BDA8000020E50B000008B5024B27
S1130F605868024B984708BDA8000020E50B000014
S1130F7008B5024B5868024B984708BDA8000020EA
S1130F80E50B000008B5024B5868024B984708BDB2
S1130F90A8000020E50B0000034B6FF07F425A606D
S1130FA005221A60704700BF10E000E008B5014B4D
S1130FB0984708BD990F00000022014B1A70704732
S1130FC0B00000200022014B5A707047B00000208E
S1130FD000B583B0012201A9214B1868214B984721
S1130FE0C0B218B3204B5B687F2B22DC9DF8041041
S1130FF01E4AD15401331C4A53600EE0591E1B4A49
S1131000D05C505401337F2BF8DD9DF80420174B3E
S113101083F87F208022144B5A60134B5B68032BA8
S113102004DD5A1E11498A5C0A2A04D003B05DF813
S113103004FB0123E7E7023BCB5C0D2BF6D1022234
S1131040094B1A7203220A4908480A4B984710B9F7
S11310500022054B5A720122034B9A72E6E700BF45
S113106080020020C1050000B0000020040300201D
S113107030160000D914000010B582B0012201A975
S11310803E4B18683E4B9847C0B218B33D4BDB68E3
S11310907F2B21DC9DF804103B4AD1540133394A9B
S11310A0D3600EE0591E384AD05C505401337F2B74
S11310B0F8DD9DF80420344B83F87F208022314BE7
S11310C0DA60304BDB68032B04DD5A1E2E498A5C40
S11310D00A2A03D002B010BD0123E8E7023BCB5C2F
S11310E00D2BF7D10222274B1A74092227492648CF
S11310F0274B984748B1092226492348244B98474F
S113110010B301221F4B5A74E4E7234A1F491E48B7
S1131110224B984704462249224B984730B94FF452
S11311208042214B5A610122164B1A741F492046F2
S11311301C4B98470028DED14FF480421A4B9A6129
S11311400122104B1A74D6E7134A12490E48134B66
S1131150984704461249134B984718B9094B012282
S11311605A721A74114920460E4B98470028C8D168
S1131170044B02225A7201221A74C2E77C01002035
S1131180C1050000B0000020000200203416000059
S1131190D914000048160000801600000505000060
S11311A040160000B5140000008000414416000001
S11311B0F8B5574B9847574C574A01212046574D8D
S11311C0A847574A00212046A84756492046564F6B
S11311D0B8472046554EB047554C564A0121204643
S11311E0A847554A00212046A84754492046B847F5
S11311F02046B04746E00021514AD1540133514AB8
S1131200D2689342F7DB4F4B0022DA605A743DE018
S11312100023F4E700214C4AD1540133494A52686F
S11312209342F7DB474B00225A609A7232E0002364
S1131230F4E7444B1B78002B32D1424B00221A7442
S11312404249434A1068086092888A8001221A70D1
S11312500522344B18683F4B984721E0394A1374F0
S11312603A4C3D4B03CB206061600123137007228D
S113127021462C4B1868374B984715E0314B5B7867
S1131280002B31D02F4B5B7C002BC1D12D4B9B7A93
S1131290002BCCD12B4B1B7C012BCAD0022B03D1AE
S11312A0284B1B78002BD9D0264B5B7A012BE5D039
S11312B0022BE7D1234B5B78002BE3D1214D032391
S11312C06B72264C264B07CB20606160A2601A88A3
S11312D09B78A281A37301236B700E222146174BC6
S11312E018681C4B9847CDE7164D03236B721B4CB3
S11312F01C4B07CB20606160A2601B88A381012383
S11313006B700D2221460D4B1868124B9847B9E7B4
S1131310D10200001C010020B90F000035080000B4
S1131320791000007C01002009080000DD0700009E
S1131330CC000020C50F0000D10F00008002002067
S113134000020020B00000200403002084020020DA
S1131350541600008D0500005C160000800100207A
S1131360741600006416000070B50D4E0D4CA41BDD
S1131370A4100025A54209D10B4E0C4C00F0B2F983
S1131380A41BA4100025A54205D170BD56F8253034
S113139098470135EEE756F8253098470135F2E7CE
S11313A0F0160000F0160000F0160000F41600001D
S11313B0024B0146186800F00FB800BF000000207F
S11313C010B5431E0A44914200D110BD11F8014BDF
S11313D003F8014FF7E7000070B5CD1C25F00305B5
S11313E008350C2D38BF0C25002D064601DBA9421B
S11313F003D90C233360002070BD00F09AF8234A0F
S11314001468214691B9224C23681BB9304600F078
S113141041F820602946304600F03CF8431C26D1B0
S11314200C233360304600F085F8E4E70B685B1B5F
S11314301AD40B2B0FD90B60CD50CC18304600F0CA
S113144079F804F10B00231D20F00700C31A1BD008
S11314505A42E25070BD8C420DBF63684B686360B2
S1131460136018BF0C46E9E70C464968CAE7C41C78
S113147024F00304A04205D0211A304600F00AF8F3
S11314800130CDD02560D9E770BD00BFC400002075
S1131490C800002038B5064C0023054608462360E2
S11314A0FFF77EFA431C02D1236803B12B6038BDD9
S11314B08403002010F8012B11F8013B012A28BFF6
S11314C09A42F7D0D01A7047034613F8012B002A2A
S11314D0FBD1181A0138704710B56AB10139841864
S11314E010F8013B11F8012F934203D1A04201D01F
S11314F0002BF5D1981A10BD104610BDF0B5037835
S113150033B1034618465E1C1B7833B91846F0BD48
S11315100B78002B18BF0020F0BD4D1E441E15F89B
S1131520012F002AF3D014F8017F97423346F6D0F6
S1131530E8E77047704700002E2E2F68616C2F7308
S113154072632F68616C5F696F2E63002E2E2F68A3
S1131550616C2F7372632F68616C5F757361727451
S11315605F6173796E632E63000000002E2E2F6876
S1131570616C2F7574696C732F7372632F75746942
S11315806C735F72696E676275666665722E63005E
S1131590003000400034004000200141004001417F
S11315A00000004300040043030000000400104056
S11315B040000300020070002BF600000000000051
S11315C00500000004001040400003000200700009
S11315D02BF60000000000000000000000000000E6
S11315E000000000000000000000000000000000F7
S11315F000000000000000000000000000000000E7
S113160000000000000000000000000000000000D6
S1131610000000002E2E2F68706C2F736572636FAC
S11316206D2F68706C5F736572636F6D2E6300005D
S113163041434B006C6564306D61696E3D00000090
S11316406F6E00006F6666006C6564306175783299
S11316503D00000041434B0D0A0000004E4F414342
S11316604B0D0A006C656430617578323D6F6E0D08
S11316700A0000006C656430617578323D6F6666FF
S11316800D0A00000000000000000000000000003F
S11316900000000000000000000000000000000046
S11316A00000000000000000000000000000000036
S11316B00000000000000000000000000000000026
S11316C00000000000000000000000000000000016
S11316D00000000000000000000000000000000006
S11316E000000000F8B500BFF8BC08BC9E46704777
S11316F089020000F8B500BFF8BC08BC9E467047DC
S1071700650200007A
S11317040400002000000000A4160000C416000019
S11317148416000000000000000000000000000027
S113172400000000000000000000000000000000B1
S113173400000000000000000000000000000000A1
S11317440000000000000000000000000000000091
S11317540000000000000000000000000000000081
S1071764000000007D
S9030000FC
